{
  "_format": "hh-sol-artifact-1",
  "contractName": "Transactions",
  "sourceName": "contracts/Transactions.sol",
  "abi": [
    {
      "inputs": [
        {
          "internalType": "string",
          "name": "seller_name",
          "type": "string"
        },
        {
          "internalType": "string",
          "name": "seller_id",
          "type": "string"
        },
        {
          "internalType": "string",
          "name": "buyer_name",
          "type": "string"
        },
        {
          "internalType": "string",
          "name": "buyer_id",
          "type": "string"
        },
        {
          "internalType": "string",
          "name": "bill_id",
          "type": "string"
        },
        {
          "internalType": "string",
          "name": "purchase_date",
          "type": "string"
        },
        {
          "internalType": "string",
          "name": "price",
          "type": "string"
        },
        {
          "internalType": "string",
          "name": "pvt_key",
          "type": "string"
        }
      ],
      "name": "addToBlockchain",
      "outputs": [],
      "stateMutability": "nonpayable",
      "type": "function"
    },
    {
      "inputs": [],
      "name": "getAllTransactions",
      "outputs": [
        {
          "components": [
            {
              "internalType": "string",
              "name": "seller_name",
              "type": "string"
            },
            {
              "internalType": "string",
              "name": "seller_id",
              "type": "string"
            },
            {
              "internalType": "string",
              "name": "buyer_name",
              "type": "string"
            },
            {
              "internalType": "string",
              "name": "buyer_id",
              "type": "string"
            },
            {
              "internalType": "string",
              "name": "bill_id",
              "type": "string"
            },
            {
              "internalType": "string",
              "name": "purchase_date",
              "type": "string"
            },
            {
              "internalType": "string",
              "name": "price",
              "type": "string"
            },
            {
              "internalType": "string",
              "name": "pvt_key",
              "type": "string"
            }
          ],
          "internalType": "struct Transactions.TransferStruct[]",
          "name": "",
          "type": "tuple[]"
        }
      ],
      "stateMutability": "view",
      "type": "function"
    },
    {
      "inputs": [],
      "name": "getTransactionCount",
      "outputs": [
        {
          "internalType": "uint256",
          "name": "",
          "type": "uint256"
        }
      ],
      "stateMutability": "view",
      "type": "function"
    }
  ],
  "bytecode": "0x608060405234801561001057600080fd5b50610dd3806100206000396000f3fe608060405234801561001057600080fd5b50600436106100415760003560e01c806307f658541461004657806327506f53146100625780632e7700f014610080575b600080fd5b610060600480360381019061005b9190610814565b61009e565b005b61006a610210565b6040516100779190610b38565b60405180910390f35b610088610700565b6040516100959190610b5a565b60405180910390f35b60016000808282546100b09190610c2b565b9250508190555060016040518061010001604052808a81526020018981526020018881526020018781526020018681526020018581526020018481526020018381525090806001815401808255809150506001900390600052602060002090600802016000909190919091506000820151816000019080519060200190610138929190610709565b506020820151816001019080519060200190610155929190610709565b506040820151816002019080519060200190610172929190610709565b50606082015181600301908051906020019061018f929190610709565b5060808201518160040190805190602001906101ac929190610709565b5060a08201518160050190805190602001906101c9929190610709565b5060c08201518160060190805190602001906101e6929190610709565b5060e0820151816007019080519060200190610203929190610709565b5050505050505050505050565b60606001805480602002602001604051908101604052809291908181526020016000905b828210156106f757838290600052602060002090600802016040518061010001604052908160008201805461026890610ccd565b80601f016020809104026020016040519081016040528092919081815260200182805461029490610ccd565b80156102e15780601f106102b6576101008083540402835291602001916102e1565b820191906000526020600020905b8154815290600101906020018083116102c457829003601f168201915b505050505081526020016001820180546102fa90610ccd565b80601f016020809104026020016040519081016040528092919081815260200182805461032690610ccd565b80156103735780601f1061034857610100808354040283529160200191610373565b820191906000526020600020905b81548152906001019060200180831161035657829003601f168201915b5050505050815260200160028201805461038c90610ccd565b80601f01602080910402602001604051908101604052809291908181526020018280546103b890610ccd565b80156104055780601f106103da57610100808354040283529160200191610405565b820191906000526020600020905b8154815290600101906020018083116103e857829003601f168201915b5050505050815260200160038201805461041e90610ccd565b80601f016020809104026020016040519081016040528092919081815260200182805461044a90610ccd565b80156104975780601f1061046c57610100808354040283529160200191610497565b820191906000526020600020905b81548152906001019060200180831161047a57829003601f168201915b505050505081526020016004820180546104b090610ccd565b80601f01602080910402602001604051908101604052809291908181526020018280546104dc90610ccd565b80156105295780601f106104fe57610100808354040283529160200191610529565b820191906000526020600020905b81548152906001019060200180831161050c57829003601f168201915b5050505050815260200160058201805461054290610ccd565b80601f016020809104026020016040519081016040528092919081815260200182805461056e90610ccd565b80156105bb5780601f10610590576101008083540402835291602001916105bb565b820191906000526020600020905b81548152906001019060200180831161059e57829003601f168201915b505050505081526020016006820180546105d490610ccd565b80601f016020809104026020016040519081016040528092919081815260200182805461060090610ccd565b801561064d5780601f106106225761010080835404028352916020019161064d565b820191906000526020600020905b81548152906001019060200180831161063057829003601f168201915b5050505050815260200160078201805461066690610ccd565b80601f016020809104026020016040519081016040528092919081815260200182805461069290610ccd565b80156106df5780601f106106b4576101008083540402835291602001916106df565b820191906000526020600020905b8154815290600101906020018083116106c257829003601f168201915b50505050508152505081526020019060010190610234565b50505050905090565b60008054905090565b82805461071590610ccd565b90600052602060002090601f016020900481019282610737576000855561077e565b82601f1061075057805160ff191683800117855561077e565b8280016001018555821561077e579182015b8281111561077d578251825591602001919060010190610762565b5b50905061078b919061078f565b5090565b5b808211156107a8576000816000905550600101610790565b5090565b60006107bf6107ba84610ba6565b610b75565b9050828152602081018484840111156107d757600080fd5b6107e2848285610c8b565b509392505050565b600082601f8301126107fb57600080fd5b813561080b8482602086016107ac565b91505092915050565b600080600080600080600080610100898b03121561083157600080fd5b600089013567ffffffffffffffff81111561084b57600080fd5b6108578b828c016107ea565b985050602089013567ffffffffffffffff81111561087457600080fd5b6108808b828c016107ea565b975050604089013567ffffffffffffffff81111561089d57600080fd5b6108a98b828c016107ea565b965050606089013567ffffffffffffffff8111156108c657600080fd5b6108d28b828c016107ea565b955050608089013567ffffffffffffffff8111156108ef57600080fd5b6108fb8b828c016107ea565b94505060a089013567ffffffffffffffff81111561091857600080fd5b6109248b828c016107ea565b93505060c089013567ffffffffffffffff81111561094157600080fd5b61094d8b828c016107ea565b92505060e089013567ffffffffffffffff81111561096a57600080fd5b6109768b828c016107ea565b9150509295985092959890939650565b60006109928383610a48565b905092915050565b60006109a582610be6565b6109af8185610c09565b9350836020820285016109c185610bd6565b8060005b858110156109fd57848403895281516109de8582610986565b94506109e983610bfc565b925060208a019950506001810190506109c5565b50829750879550505050505092915050565b6000610a1a82610bf1565b610a248185610c1a565b9350610a34818560208601610c9a565b610a3d81610d8c565b840191505092915050565b6000610100830160008301518482036000860152610a668282610a0f565b91505060208301518482036020860152610a808282610a0f565b91505060408301518482036040860152610a9a8282610a0f565b91505060608301518482036060860152610ab48282610a0f565b91505060808301518482036080860152610ace8282610a0f565b91505060a083015184820360a0860152610ae88282610a0f565b91505060c083015184820360c0860152610b028282610a0f565b91505060e083015184820360e0860152610b1c8282610a0f565b9150508091505092915050565b610b3281610c81565b82525050565b60006020820190508181036000830152610b52818461099a565b905092915050565b6000602082019050610b6f6000830184610b29565b92915050565b6000604051905081810181811067ffffffffffffffff82111715610b9c57610b9b610d5d565b5b8060405250919050565b600067ffffffffffffffff821115610bc157610bc0610d5d565b5b601f19601f8301169050602081019050919050565b6000819050602082019050919050565b600081519050919050565b600081519050919050565b6000602082019050919050565b600082825260208201905092915050565b600082825260208201905092915050565b6000610c3682610c81565b9150610c4183610c81565b9250827fffffffffffffffffffffffffffffffffffffffffffffffffffffffffffffffff03821115610c7657610c75610cff565b5b828201905092915050565b6000819050919050565b82818337600083830152505050565b60005b83811015610cb8578082015181840152602081019050610c9d565b83811115610cc7576000848401525b50505050565b60006002820490506001821680610ce557607f821691505b60208210811415610cf957610cf8610d2e565b5b50919050565b7f4e487b7100000000000000000000000000000000000000000000000000000000600052601160045260246000fd5b7f4e487b7100000000000000000000000000000000000000000000000000000000600052602260045260246000fd5b7f4e487b7100000000000000000000000000000000000000000000000000000000600052604160045260246000fd5b6000601f19601f830116905091905056fea2646970667358221220cab0a98c53c99a5cc1828887950f96d60a01ca4b68507b9fc78481a3a30e808464736f6c63430008000033",
  "linkReferences": {},
  "deployedLinkReferences": {}
}